{
  "_format": "hh-sol-artifact-1",
  "contractName": "MyEpicGame",
  "sourceName": "contracts/MyEpicGame.sol",
  "abi": [
    {
      "inputs": [
        {
          "internalType": "string[]",
          "name": "characterNames",
          "type": "string[]"
        },
        {
          "internalType": "string[]",
          "name": "characterImageURIs",
          "type": "string[]"
        },
        {
          "internalType": "uint256[]",
          "name": "characterHp",
          "type": "uint256[]"
        },
        {
          "internalType": "uint256[]",
          "name": "characterAttackDmg",
          "type": "uint256[]"
        },
        {
          "internalType": "string",
          "name": "bossName",
          "type": "string"
        },
        {
          "internalType": "string",
          "name": "bossImageURI",
          "type": "string"
        },
        {
          "internalType": "uint256",
          "name": "bossHp",
          "type": "uint256"
        },
        {
          "internalType": "uint256",
          "name": "bossAttackDamage",
          "type": "uint256"
        }
      ],
      "stateMutability": "nonpayable",
      "type": "constructor"
    },
    {
      "anonymous": false,
      "inputs": [
        {
          "indexed": true,
          "internalType": "address",
          "name": "owner",
          "type": "address"
        },
        {
          "indexed": true,
          "internalType": "address",
          "name": "approved",
          "type": "address"
        },
        {
          "indexed": true,
          "internalType": "uint256",
          "name": "tokenId",
          "type": "uint256"
        }
      ],
      "name": "Approval",
      "type": "event"
    },
    {
      "anonymous": false,
      "inputs": [
        {
          "indexed": true,
          "internalType": "address",
          "name": "owner",
          "type": "address"
        },
        {
          "indexed": true,
          "internalType": "address",
          "name": "operator",
          "type": "address"
        },
        {
          "indexed": false,
          "internalType": "bool",
          "name": "approved",
          "type": "bool"
        }
      ],
      "name": "ApprovalForAll",
      "type": "event"
    },
    {
      "anonymous": false,
      "inputs": [
        {
          "indexed": false,
          "internalType": "uint256",
          "name": "newBossHp",
          "type": "uint256"
        },
        {
          "indexed": false,
          "internalType": "uint256",
          "name": "newPlayerHp",
          "type": "uint256"
        }
      ],
      "name": "AttackComplete",
      "type": "event"
    },
    {
      "anonymous": false,
      "inputs": [
        {
          "indexed": false,
          "internalType": "address",
          "name": "sender",
          "type": "address"
        },
        {
          "indexed": false,
          "internalType": "uint256",
          "name": "tokenId",
          "type": "uint256"
        },
        {
          "indexed": false,
          "internalType": "uint256",
          "name": "characterIndex",
          "type": "uint256"
        }
      ],
      "name": "CharacterNFTMinted",
      "type": "event"
    },
    {
      "anonymous": false,
      "inputs": [
        {
          "indexed": true,
          "internalType": "address",
          "name": "from",
          "type": "address"
        },
        {
          "indexed": true,
          "internalType": "address",
          "name": "to",
          "type": "address"
        },
        {
          "indexed": true,
          "internalType": "uint256",
          "name": "tokenId",
          "type": "uint256"
        }
      ],
      "name": "Transfer",
      "type": "event"
    },
    {
      "inputs": [
        {
          "internalType": "address",
          "name": "to",
          "type": "address"
        },
        {
          "internalType": "uint256",
          "name": "tokenId",
          "type": "uint256"
        }
      ],
      "name": "approve",
      "outputs": [],
      "stateMutability": "nonpayable",
      "type": "function"
    },
    {
      "inputs": [],
      "name": "attackBoss",
      "outputs": [],
      "stateMutability": "nonpayable",
      "type": "function"
    },
    {
      "inputs": [
        {
          "internalType": "address",
          "name": "owner",
          "type": "address"
        }
      ],
      "name": "balanceOf",
      "outputs": [
        {
          "internalType": "uint256",
          "name": "",
          "type": "uint256"
        }
      ],
      "stateMutability": "view",
      "type": "function"
    },
    {
      "inputs": [],
      "name": "bigBoss",
      "outputs": [
        {
          "internalType": "string",
          "name": "name",
          "type": "string"
        },
        {
          "internalType": "string",
          "name": "imageURI",
          "type": "string"
        },
        {
          "internalType": "uint256",
          "name": "hp",
          "type": "uint256"
        },
        {
          "internalType": "uint256",
          "name": "maxHp",
          "type": "uint256"
        },
        {
          "internalType": "uint256",
          "name": "attackDamage",
          "type": "uint256"
        }
      ],
      "stateMutability": "view",
      "type": "function"
    },
    {
      "inputs": [],
      "name": "checkIfUserHasNft",
      "outputs": [
        {
          "components": [
            {
              "internalType": "uint256",
              "name": "characterIndex",
              "type": "uint256"
            },
            {
              "internalType": "string",
              "name": "name",
              "type": "string"
            },
            {
              "internalType": "string",
              "name": "imageURI",
              "type": "string"
            },
            {
              "internalType": "uint256",
              "name": "hp",
              "type": "uint256"
            },
            {
              "internalType": "uint256",
              "name": "maxHp",
              "type": "uint256"
            },
            {
              "internalType": "uint256",
              "name": "attackDamage",
              "type": "uint256"
            }
          ],
          "internalType": "struct MyEpicGame.CharacterAttributes",
          "name": "",
          "type": "tuple"
        }
      ],
      "stateMutability": "view",
      "type": "function"
    },
    {
      "inputs": [],
      "name": "getAllDefaultCharacters",
      "outputs": [
        {
          "components": [
            {
              "internalType": "uint256",
              "name": "characterIndex",
              "type": "uint256"
            },
            {
              "internalType": "string",
              "name": "name",
              "type": "string"
            },
            {
              "internalType": "string",
              "name": "imageURI",
              "type": "string"
            },
            {
              "internalType": "uint256",
              "name": "hp",
              "type": "uint256"
            },
            {
              "internalType": "uint256",
              "name": "maxHp",
              "type": "uint256"
            },
            {
              "internalType": "uint256",
              "name": "attackDamage",
              "type": "uint256"
            }
          ],
          "internalType": "struct MyEpicGame.CharacterAttributes[]",
          "name": "",
          "type": "tuple[]"
        }
      ],
      "stateMutability": "view",
      "type": "function"
    },
    {
      "inputs": [
        {
          "internalType": "uint256",
          "name": "tokenId",
          "type": "uint256"
        }
      ],
      "name": "getApproved",
      "outputs": [
        {
          "internalType": "address",
          "name": "",
          "type": "address"
        }
      ],
      "stateMutability": "view",
      "type": "function"
    },
    {
      "inputs": [],
      "name": "getBigBoss",
      "outputs": [
        {
          "components": [
            {
              "internalType": "string",
              "name": "name",
              "type": "string"
            },
            {
              "internalType": "string",
              "name": "imageURI",
              "type": "string"
            },
            {
              "internalType": "uint256",
              "name": "hp",
              "type": "uint256"
            },
            {
              "internalType": "uint256",
              "name": "maxHp",
              "type": "uint256"
            },
            {
              "internalType": "uint256",
              "name": "attackDamage",
              "type": "uint256"
            }
          ],
          "internalType": "struct MyEpicGame.BigBoss",
          "name": "",
          "type": "tuple"
        }
      ],
      "stateMutability": "view",
      "type": "function"
    },
    {
      "inputs": [
        {
          "internalType": "address",
          "name": "owner",
          "type": "address"
        },
        {
          "internalType": "address",
          "name": "operator",
          "type": "address"
        }
      ],
      "name": "isApprovedForAll",
      "outputs": [
        {
          "internalType": "bool",
          "name": "",
          "type": "bool"
        }
      ],
      "stateMutability": "view",
      "type": "function"
    },
    {
      "inputs": [
        {
          "internalType": "uint256",
          "name": "_characterIndex",
          "type": "uint256"
        }
      ],
      "name": "mintCharacterNFT",
      "outputs": [],
      "stateMutability": "nonpayable",
      "type": "function"
    },
    {
      "inputs": [],
      "name": "name",
      "outputs": [
        {
          "internalType": "string",
          "name": "",
          "type": "string"
        }
      ],
      "stateMutability": "view",
      "type": "function"
    },
    {
      "inputs": [
        {
          "internalType": "uint256",
          "name": "",
          "type": "uint256"
        }
      ],
      "name": "nftHolderAttributes",
      "outputs": [
        {
          "internalType": "uint256",
          "name": "characterIndex",
          "type": "uint256"
        },
        {
          "internalType": "string",
          "name": "name",
          "type": "string"
        },
        {
          "internalType": "string",
          "name": "imageURI",
          "type": "string"
        },
        {
          "internalType": "uint256",
          "name": "hp",
          "type": "uint256"
        },
        {
          "internalType": "uint256",
          "name": "maxHp",
          "type": "uint256"
        },
        {
          "internalType": "uint256",
          "name": "attackDamage",
          "type": "uint256"
        }
      ],
      "stateMutability": "view",
      "type": "function"
    },
    {
      "inputs": [
        {
          "internalType": "address",
          "name": "",
          "type": "address"
        }
      ],
      "name": "nftHolders",
      "outputs": [
        {
          "internalType": "uint256",
          "name": "",
          "type": "uint256"
        }
      ],
      "stateMutability": "view",
      "type": "function"
    },
    {
      "inputs": [
        {
          "internalType": "uint256",
          "name": "tokenId",
          "type": "uint256"
        }
      ],
      "name": "ownerOf",
      "outputs": [
        {
          "internalType": "address",
          "name": "",
          "type": "address"
        }
      ],
      "stateMutability": "view",
      "type": "function"
    },
    {
      "inputs": [
        {
          "internalType": "address",
          "name": "from",
          "type": "address"
        },
        {
          "internalType": "address",
          "name": "to",
          "type": "address"
        },
        {
          "internalType": "uint256",
          "name": "tokenId",
          "type": "uint256"
        }
      ],
      "name": "safeTransferFrom",
      "outputs": [],
      "stateMutability": "nonpayable",
      "type": "function"
    },
    {
      "inputs": [
        {
          "internalType": "address",
          "name": "from",
          "type": "address"
        },
        {
          "internalType": "address",
          "name": "to",
          "type": "address"
        },
        {
          "internalType": "uint256",
          "name": "tokenId",
          "type": "uint256"
        },
        {
          "internalType": "bytes",
          "name": "_data",
          "type": "bytes"
        }
      ],
      "name": "safeTransferFrom",
      "outputs": [],
      "stateMutability": "nonpayable",
      "type": "function"
    },
    {
      "inputs": [
        {
          "internalType": "address",
          "name": "operator",
          "type": "address"
        },
        {
          "internalType": "bool",
          "name": "approved",
          "type": "bool"
        }
      ],
      "name": "setApprovalForAll",
      "outputs": [],
      "stateMutability": "nonpayable",
      "type": "function"
    },
    {
      "inputs": [
        {
          "internalType": "bytes4",
          "name": "interfaceId",
          "type": "bytes4"
        }
      ],
      "name": "supportsInterface",
      "outputs": [
        {
          "internalType": "bool",
          "name": "",
          "type": "bool"
        }
      ],
      "stateMutability": "view",
      "type": "function"
    },
    {
      "inputs": [],
      "name": "symbol",
      "outputs": [
        {
          "internalType": "string",
          "name": "",
          "type": "string"
        }
      ],
      "stateMutability": "view",
      "type": "function"
    },
    {
      "inputs": [
        {
          "internalType": "uint256",
          "name": "_tokenId",
          "type": "uint256"
        }
      ],
      "name": "tokenURI",
      "outputs": [
        {
          "internalType": "string",
          "name": "",
          "type": "string"
        }
      ],
      "stateMutability": "view",
      "type": "function"
    },
    {
      "inputs": [
        {
          "internalType": "address",
          "name": "from",
          "type": "address"
        },
        {
          "internalType": "address",
          "name": "to",
          "type": "address"
        },
        {
          "internalType": "uint256",
          "name": "tokenId",
          "type": "uint256"
        }
      ],
      "name": "transferFrom",
      "outputs": [],
      "stateMutability": "nonpayable",
      "type": "function"
    }
  ],
  "bytecode": "0x60806040523480156200001157600080fd5b506040516200574138038062005741833981810160405281019062000037919062000a5a565b6040518060400160405280600581526020017f4341504f530000000000000000000000000000000000000000000000000000008152506040518060400160405280600481526020017f4341504f000000000000000000000000000000000000000000000000000000008152508160009080519060200190620000bb929190620007ed565b508060019080519060200190620000d4929190620007ed565b5050506040518060a0016040528085815260200184815260200183815260200183815260200182815250600960008201518160000190805190602001906200011e929190620007ed565b5060208201518160010190805190602001906200013d929190620007ed565b50604082015181600201556060820151816003015560808201518160040155905050620002c06040518060600160405280602a815260200162005717602a9139600960000180546200018f9062000de5565b80601f0160208091040260200160405190810160405280929190818152602001828054620001bd9062000de5565b80156200020e5780601f10620001e2576101008083540402835291602001916200020e565b820191906000526020600020905b815481529060010190602001808311620001f057829003601f168201915b5050505050600960020154600960010180546200022b9062000de5565b80601f0160208091040260200160405190810160405280929190818152602001828054620002599062000de5565b8015620002aa5780601f106200027e57610100808354040283529160200191620002aa565b820191906000526020600020905b8154815290600101906020018083116200028c57829003601f168201915b50505050506200070260201b62001bb81760201c565b60005b8851811015620006dc5760076040518060c001604052808381526020018b84815181106200031a577f4e487b7100000000000000000000000000000000000000000000000000000000600052603260045260246000fd5b602002602001015181526020018a848151811062000361577f4e487b7100000000000000000000000000000000000000000000000000000000600052603260045260246000fd5b60200260200101518152602001898481518110620003a8577f4e487b7100000000000000000000000000000000000000000000000000000000600052603260045260246000fd5b60200260200101518152602001898481518110620003ef577f4e487b7100000000000000000000000000000000000000000000000000000000600052603260045260246000fd5b6020026020010151815260200188848151811062000436577f4e487b7100000000000000000000000000000000000000000000000000000000600052603260045260246000fd5b6020026020010151815250908060018154018082558091505060019003906000526020600020906006020160009091909190915060008201518160000155602082015181600101908051906020019062000492929190620007ed565b506040820151816002019080519060200190620004b1929190620007ed565b50606082015181600301556080820151816004015560a0820151816005015550506000600782815481106200050f577f4e487b7100000000000000000000000000000000000000000000000000000000600052603260045260246000fd5b90600052602060002090600602016040518060c001604052908160008201548152602001600182018054620005449062000de5565b80601f0160208091040260200160405190810160405280929190818152602001828054620005729062000de5565b8015620005c35780601f106200059757610100808354040283529160200191620005c3565b820191906000526020600020905b815481529060010190602001808311620005a557829003601f168201915b50505050508152602001600282018054620005de9062000de5565b80601f01602080910402602001604051908101604052809291908181526020018280546200060c9062000de5565b80156200065d5780601f1062000631576101008083540402835291602001916200065d565b820191906000526020600020905b8154815290600101906020018083116200063f57829003601f168201915b5050505050815260200160038201548152602001600482015481526020016005820154815250509050620006c4604051806060016040528060258152602001620056f2602591398260200151836060015184604001516200070260201b62001bb81760201c565b50600181620006d4919062000d48565b9050620002c3565b50620006f46006620007ae60201b62001c5a1760201c565b505050505050505062000ed3565b620007a8848484846040516024016200071f949392919062000c05565b6040516020818303038152906040527f8d142cdd000000000000000000000000000000000000000000000000000000007bffffffffffffffffffffffffffffffffffffffffffffffffffffffff19166020820180517bffffffffffffffffffffffffffffffffffffffffffffffffffffffff8381831617835250505050620007c460201b60201c565b50505050565b6001816000016000828254019250508190555050565b60008151905060006a636f6e736f6c652e6c6f679050602083016000808483855afa5050505050565b828054620007fb9062000de5565b90600052602060002090601f0160209004810192826200081f57600085556200086b565b82601f106200083a57805160ff19168380011785556200086b565b828001600101855582156200086b579182015b828111156200086a5782518255916020019190600101906200084d565b5b5090506200087a91906200087e565b5090565b5b80821115620008995760008160009055506001016200087f565b5090565b6000620008b4620008ae8462000c9b565b62000c67565b9050808382526020820190508260005b85811015620008f85781518501620008dd888262000a16565b845260208401935060208301925050600181019050620008c4565b5050509392505050565b600062000919620009138462000cca565b62000c67565b905080838252602082019050828560208602820111156200093957600080fd5b60005b858110156200096d578162000952888262000a43565b8452602084019350602083019250506001810190506200093c565b5050509392505050565b60006200098e620009888462000cf9565b62000c67565b905082815260208101848484011115620009a757600080fd5b620009b484828562000daf565b509392505050565b600082601f830112620009ce57600080fd5b8151620009e08482602086016200089d565b91505092915050565b600082601f830112620009fb57600080fd5b815162000a0d84826020860162000902565b91505092915050565b600082601f83011262000a2857600080fd5b815162000a3a84826020860162000977565b91505092915050565b60008151905062000a548162000eb9565b92915050565b600080600080600080600080610100898b03121562000a7857600080fd5b600089015167ffffffffffffffff81111562000a9357600080fd5b62000aa18b828c01620009bc565b985050602089015167ffffffffffffffff81111562000abf57600080fd5b62000acd8b828c01620009bc565b975050604089015167ffffffffffffffff81111562000aeb57600080fd5b62000af98b828c01620009e9565b965050606089015167ffffffffffffffff81111562000b1757600080fd5b62000b258b828c01620009e9565b955050608089015167ffffffffffffffff81111562000b4357600080fd5b62000b518b828c0162000a16565b94505060a089015167ffffffffffffffff81111562000b6f57600080fd5b62000b7d8b828c0162000a16565b93505060c062000b908b828c0162000a43565b92505060e062000ba38b828c0162000a43565b9150509295985092959890939650565b600062000bc08262000d2c565b62000bcc818562000d37565b935062000bde81856020860162000daf565b62000be98162000ea8565b840191505092915050565b62000bff8162000da5565b82525050565b6000608082019050818103600083015262000c21818762000bb3565b9050818103602083015262000c37818662000bb3565b905062000c48604083018562000bf4565b818103606083015262000c5c818462000bb3565b905095945050505050565b6000604051905081810181811067ffffffffffffffff8211171562000c915762000c9062000e79565b5b8060405250919050565b600067ffffffffffffffff82111562000cb95762000cb862000e79565b5b602082029050602081019050919050565b600067ffffffffffffffff82111562000ce85762000ce762000e79565b5b602082029050602081019050919050565b600067ffffffffffffffff82111562000d175762000d1662000e79565b5b601f19601f8301169050602081019050919050565b600081519050919050565b600082825260208201905092915050565b600062000d558262000da5565b915062000d628362000da5565b9250827fffffffffffffffffffffffffffffffffffffffffffffffffffffffffffffffff0382111562000d9a5762000d9962000e1b565b5b828201905092915050565b6000819050919050565b60005b8381101562000dcf57808201518184015260208101905062000db2565b8381111562000ddf576000848401525b50505050565b6000600282049050600182168062000dfe57607f821691505b6020821081141562000e155762000e1462000e4a565b5b50919050565b7f4e487b7100000000000000000000000000000000000000000000000000000000600052601160045260246000fd5b7f4e487b7100000000000000000000000000000000000000000000000000000000600052602260045260246000fd5b7f4e487b7100000000000000000000000000000000000000000000000000000000600052604160045260246000fd5b6000601f19601f8301169050919050565b62000ec48162000da5565b811462000ed057600080fd5b50565b61480f8062000ee36000396000f3fe608060405234801561001057600080fd5b50600436106101375760003560e01c806395d89b41116100b8578063b953084e1161007c578063b953084e14610369578063c732d39614610387578063c87b56dd146103a5578063d4f24c5b146103d5578063e985e9c5146103df578063f8b81ef71461040f57610137565b806395d89b41146102bc57806398da4c95146102da578063a22cb4651461030f578063a9c326791461032b578063b88d4fde1461034d57610137565b806323b872dd116100ff57806323b872dd146101f457806342842e0e146102105780636352211e1461022c57806370a082311461025c5780637df124a11461028c57610137565b806301ffc9a71461013c5780630665f9611461016c57806306fdde031461018a578063081812fc146101a8578063095ea7b3146101d8575b600080fd5b61015660048036038101906101519190613013565b61042b565b6040516101639190613d73565b60405180910390f35b61017461050d565b604051610181919061410c565b60405180910390f35b610192610669565b60405161019f9190613d8e565b60405180910390f35b6101c260048036038101906101bd9190613065565b6106fb565b6040516101cf9190613cb3565b60405180910390f35b6101f260048036038101906101ed9190612fd7565b610780565b005b61020e60048036038101906102099190612ed1565b610898565b005b61022a60048036038101906102259190612ed1565b6108f8565b005b61024660048036038101906102419190613065565b610918565b6040516102539190613cb3565b60405180910390f35b61027660048036038101906102719190612e6c565b6109ca565b6040516102839190614150565b60405180910390f35b6102a660048036038101906102a19190612e6c565b610a82565b6040516102b39190614150565b60405180910390f35b6102c4610a9a565b6040516102d19190613d8e565b60405180910390f35b6102f460048036038101906102ef9190613065565b610b2c565b6040516103069695949392919061416b565b60405180910390f35b61032960048036038101906103249190612f9b565b610c78565b005b610333610c8e565b604051610344959493929190613e5d565b60405180910390f35b61036760048036038101906103629190612f20565b610dc2565b005b610371610e24565b60405161037e9190613d51565b60405180910390f35b61038f610fcf565b60405161039c919061412e565b60405180910390f35b6103bf60048036038101906103ba9190613065565b6111a7565b6040516103cc9190613d8e565b60405180910390f35b6103dd6113c2565b005b6103f960048036038101906103f49190612e95565b611730565b6040516104069190613d73565b60405180910390f35b61042960048036038101906104249190613065565b6117c4565b005b60007f80ac58cd000000000000000000000000000000000000000000000000000000007bffffffffffffffffffffffffffffffffffffffffffffffffffffffff1916827bffffffffffffffffffffffffffffffffffffffffffffffffffffffff191614806104f657507f5b5e139f000000000000000000000000000000000000000000000000000000007bffffffffffffffffffffffffffffffffffffffffffffffffffffffff1916827bffffffffffffffffffffffffffffffffffffffffffffffffffffffff1916145b80610506575061050582611c70565b5b9050919050565b610515612c93565b60096040518060a0016040529081600082018054610532906144bc565b80601f016020809104026020016040519081016040528092919081815260200182805461055e906144bc565b80156105ab5780601f10610580576101008083540402835291602001916105ab565b820191906000526020600020905b81548152906001019060200180831161058e57829003601f168201915b505050505081526020016001820180546105c4906144bc565b80601f01602080910402602001604051908101604052809291908181526020018280546105f0906144bc565b801561063d5780601f106106125761010080835404028352916020019161063d565b820191906000526020600020905b81548152906001019060200180831161062057829003601f168201915b505050505081526020016002820154815260200160038201548152602001600482015481525050905090565b606060008054610678906144bc565b80601f01602080910402602001604051908101604052809291908181526020018280546106a4906144bc565b80156106f15780601f106106c6576101008083540402835291602001916106f1565b820191906000526020600020905b8154815290600101906020018083116106d457829003601f168201915b5050505050905090565b600061070682611cda565b610745576040517f08c379a000000000000000000000000000000000000000000000000000000000815260040161073c906140ac565b60405180910390fd5b6004600083815260200190815260200160002060009054906101000a900473ffffffffffffffffffffffffffffffffffffffff169050919050565b600061078b82610918565b90508073ffffffffffffffffffffffffffffffffffffffff168373ffffffffffffffffffffffffffffffffffffffff1614156107fc576040517f08c379a00000000000000000000000000000000000000000000000000000000081526004016107f3906140cc565b60405180910390fd5b8073ffffffffffffffffffffffffffffffffffffffff1661081b611d46565b73ffffffffffffffffffffffffffffffffffffffff16148061084a575061084981610844611d46565b611730565b5b610889576040517f08c379a00000000000000000000000000000000000000000000000000000000081526004016108809061400c565b60405180910390fd5b6108938383611d4e565b505050565b6108a96108a3611d46565b82611e07565b6108e8576040517f08c379a00000000000000000000000000000000000000000000000000000000081526004016108df906140ec565b60405180910390fd5b6108f3838383611ee5565b505050565b61091383838360405180602001604052806000815250610dc2565b505050565b6000806002600084815260200190815260200160002060009054906101000a900473ffffffffffffffffffffffffffffffffffffffff169050600073ffffffffffffffffffffffffffffffffffffffff168173ffffffffffffffffffffffffffffffffffffffff1614156109c1576040517f08c379a00000000000000000000000000000000000000000000000000000000081526004016109b89061404c565b60405180910390fd5b80915050919050565b60008073ffffffffffffffffffffffffffffffffffffffff168273ffffffffffffffffffffffffffffffffffffffff161415610a3b576040517f08c379a0000000000000000000000000000000000000000000000000000000008152600401610a329061402c565b60405180910390fd5b600360008373ffffffffffffffffffffffffffffffffffffffff1673ffffffffffffffffffffffffffffffffffffffff168152602001908152602001600020549050919050565b600e6020528060005260406000206000915090505481565b606060018054610aa9906144bc565b80601f0160208091040260200160405190810160405280929190818152602001828054610ad5906144bc565b8015610b225780601f10610af757610100808354040283529160200191610b22565b820191906000526020600020905b815481529060010190602001808311610b0557829003601f168201915b5050505050905090565b6008602052806000526040600020600091509050806000015490806001018054610b55906144bc565b80601f0160208091040260200160405190810160405280929190818152602001828054610b81906144bc565b8015610bce5780601f10610ba357610100808354040283529160200191610bce565b820191906000526020600020905b815481529060010190602001808311610bb157829003601f168201915b505050505090806002018054610be3906144bc565b80601f0160208091040260200160405190810160405280929190818152602001828054610c0f906144bc565b8015610c5c5780601f10610c3157610100808354040283529160200191610c5c565b820191906000526020600020905b815481529060010190602001808311610c3f57829003601f168201915b5050505050908060030154908060040154908060050154905086565b610c8a610c83611d46565b838361214c565b5050565b6009806000018054610c9f906144bc565b80601f0160208091040260200160405190810160405280929190818152602001828054610ccb906144bc565b8015610d185780601f10610ced57610100808354040283529160200191610d18565b820191906000526020600020905b815481529060010190602001808311610cfb57829003601f168201915b505050505090806001018054610d2d906144bc565b80601f0160208091040260200160405190810160405280929190818152602001828054610d59906144bc565b8015610da65780601f10610d7b57610100808354040283529160200191610da6565b820191906000526020600020905b815481529060010190602001808311610d8957829003601f168201915b5050505050908060020154908060030154908060040154905085565b610dd3610dcd611d46565b83611e07565b610e12576040517f08c379a0000000000000000000000000000000000000000000000000000000008152600401610e09906140ec565b60405180910390fd5b610e1e848484846122b9565b50505050565b60606007805480602002602001604051908101604052809291908181526020016000905b82821015610fc657838290600052602060002090600602016040518060c001604052908160008201548152602001600182018054610e85906144bc565b80601f0160208091040260200160405190810160405280929190818152602001828054610eb1906144bc565b8015610efe5780601f10610ed357610100808354040283529160200191610efe565b820191906000526020600020905b815481529060010190602001808311610ee157829003601f168201915b50505050508152602001600282018054610f17906144bc565b80601f0160208091040260200160405190810160405280929190818152602001828054610f43906144bc565b8015610f905780601f10610f6557610100808354040283529160200191610f90565b820191906000526020600020905b815481529060010190602001808311610f7357829003601f168201915b50505050508152602001600382015481526020016004820154815260200160058201548152505081526020019060010190610e48565b50505050905090565b610fd7612cc2565b6000600e60003373ffffffffffffffffffffffffffffffffffffffff1673ffffffffffffffffffffffffffffffffffffffff168152602001908152602001600020549050600081111561119657600860008281526020019081526020016000206040518060c00160405290816000820154815260200160018201805461105c906144bc565b80601f0160208091040260200160405190810160405280929190818152602001828054611088906144bc565b80156110d55780601f106110aa576101008083540402835291602001916110d5565b820191906000526020600020905b8154815290600101906020018083116110b857829003601f168201915b505050505081526020016002820180546110ee906144bc565b80601f016020809104026020016040519081016040528092919081815260200182805461111a906144bc565b80156111675780601f1061113c57610100808354040283529160200191611167565b820191906000526020600020905b81548152906001019060200180831161114a57829003601f168201915b5050505050815260200160038201548152602001600482015481526020016005820154815250509150506111a4565b61119e612cc2565b80925050505b90565b60606000600860008481526020019081526020016000206040518060c0016040529081600082015481526020016001820180546111e3906144bc565b80601f016020809104026020016040519081016040528092919081815260200182805461120f906144bc565b801561125c5780601f106112315761010080835404028352916020019161125c565b820191906000526020600020905b81548152906001019060200180831161123f57829003601f168201915b50505050508152602001600282018054611275906144bc565b80601f01602080910402602001604051908101604052809291908181526020018280546112a1906144bc565b80156112ee5780601f106112c3576101008083540402835291602001916112ee565b820191906000526020600020905b8154815290600101906020018083116112d157829003601f168201915b505050505081526020016003820154815260200160048201548152602001600582015481525050905060006113268260600151612315565b905060006113378360800151612315565b905060006113488460a00151612315565b9050600061138e856020015161135d89612315565b876040015187878760405160200161137a96959493929190613bec565b6040516020818303038152906040526124c2565b90506000816040516020016113a39190613c91565b6040516020818303038152906040529050809650505050505050919050565b6000600e60003373ffffffffffffffffffffffffffffffffffffffff1673ffffffffffffffffffffffffffffffffffffffff16815260200190815260200160002054905060006008600083815260200190815260200160002090506114d56040518060800160405280604681526020016146f760469139826001018054611448906144bc565b80601f0160208091040260200160405190810160405280929190818152602001828054611474906144bc565b80156114c15780601f10611496576101008083540402835291602001916114c1565b820191906000526020600020905b8154815290600101906020018083116114a457829003601f168201915b50505050508360030154846005015461264c565b6115906040518060600160405280602f81526020016146c8602f913960096000018054611501906144bc565b80601f016020809104026020016040519081016040528092919081815260200182805461152d906144bc565b801561157a5780601f1061154f5761010080835404028352916020019161157a565b820191906000526020600020905b81548152906001019060200180831161155d57829003601f168201915b505050505060096002015460096004015461264c565b60008160030154116115d7576040517f08c379a00000000000000000000000000000000000000000000000000000000081526004016115ce9061406c565b60405180910390fd5b60006009600201541161161f576040517f08c379a000000000000000000000000000000000000000000000000000000000815260040161161690613f6c565b60405180910390fd5b8060050154600960020154101561164057600060096002018190555061165f565b806005015460096002015461165591906143d2565b6009600201819055505b6009600401548160030154101561167f576000816003018190555061169d565b600960040154816003015461169491906143d2565b81600301819055505b6116c46040518060600160405280602f81526020016147ab602f91396009600201546126ee565b6116ea6040518060600160405280603681526020016146926036913982600301546126ee565b7f838ab28464562786a6c4ab2311964b82fa60bd9b14aa7e856af1f3f18d41a41460096002015482600301546040516117249291906141da565b60405180910390a15050565b6000600560008473ffffffffffffffffffffffffffffffffffffffff1673ffffffffffffffffffffffffffffffffffffffff16815260200190815260200160002060008373ffffffffffffffffffffffffffffffffffffffff1673ffffffffffffffffffffffffffffffffffffffff16815260200190815260200160002060009054906101000a900460ff16905092915050565b60006117d0600661278a565b90506117dc3382612798565b6040518060c0016040528083815260200160078481548110611827577f4e487b7100000000000000000000000000000000000000000000000000000000600052603260045260246000fd5b90600052602060002090600602016001018054611843906144bc565b80601f016020809104026020016040519081016040528092919081815260200182805461186f906144bc565b80156118bc5780601f10611891576101008083540402835291602001916118bc565b820191906000526020600020905b81548152906001019060200180831161189f57829003601f168201915b5050505050815260200160078481548110611900577f4e487b7100000000000000000000000000000000000000000000000000000000600052603260045260246000fd5b9060005260206000209060060201600201805461191c906144bc565b80601f0160208091040260200160405190810160405280929190818152602001828054611948906144bc565b80156119955780601f1061196a57610100808354040283529160200191611995565b820191906000526020600020905b81548152906001019060200180831161197857829003601f168201915b50505050508152602001600784815481106119d9577f4e487b7100000000000000000000000000000000000000000000000000000000600052603260045260246000fd5b906000526020600020906006020160030154815260200160078481548110611a2a577f4e487b7100000000000000000000000000000000000000000000000000000000600052603260045260246000fd5b906000526020600020906006020160040154815260200160078481548110611a7b577f4e487b7100000000000000000000000000000000000000000000000000000000600052603260045260246000fd5b90600052602060002090600602016005015481525060086000838152602001908152602001600020600082015181600001556020820151816001019080519060200190611ac9929190612cf8565b506040820151816002019080519060200190611ae6929190612cf8565b50606082015181600301556080820151816004015560a08201518160050155905050611b2b6040518060600160405280602e815260200161477d602e913982846127b6565b80600e60003373ffffffffffffffffffffffffffffffffffffffff1673ffffffffffffffffffffffffffffffffffffffff16815260200190815260200160002081905550611b796006611c5a565b7f4bc303fd457a97b4691b9af582ce71868a3d258638c8d4f8c60988a0f0bfb8cd338284604051611bac93929190613d1a565b60405180910390a15050565b611c5484848484604051602401611bd29493929190613db0565b6040516020818303038152906040527f8d142cdd000000000000000000000000000000000000000000000000000000007bffffffffffffffffffffffffffffffffffffffffffffffffffffffff19166020820180517bffffffffffffffffffffffffffffffffffffffffffffffffffffffff8381831617835250505050612855565b50505050565b6001816000016000828254019250508190555050565b60007f01ffc9a7000000000000000000000000000000000000000000000000000000007bffffffffffffffffffffffffffffffffffffffffffffffffffffffff1916827bffffffffffffffffffffffffffffffffffffffffffffffffffffffff1916149050919050565b60008073ffffffffffffffffffffffffffffffffffffffff166002600084815260200190815260200160002060009054906101000a900473ffffffffffffffffffffffffffffffffffffffff1673ffffffffffffffffffffffffffffffffffffffff1614159050919050565b600033905090565b816004600083815260200190815260200160002060006101000a81548173ffffffffffffffffffffffffffffffffffffffff021916908373ffffffffffffffffffffffffffffffffffffffff160217905550808273ffffffffffffffffffffffffffffffffffffffff16611dc183610918565b73ffffffffffffffffffffffffffffffffffffffff167f8c5be1e5ebec7d5bd14f71427d1e84f3dd0314c0f7b2291e5b200ac8c7c3b92560405160405180910390a45050565b6000611e1282611cda565b611e51576040517f08c379a0000000000000000000000000000000000000000000000000000000008152600401611e4890613fec565b60405180910390fd5b6000611e5c83610918565b90508073ffffffffffffffffffffffffffffffffffffffff168473ffffffffffffffffffffffffffffffffffffffff161480611ecb57508373ffffffffffffffffffffffffffffffffffffffff16611eb3846106fb565b73ffffffffffffffffffffffffffffffffffffffff16145b80611edc5750611edb8185611730565b5b91505092915050565b8273ffffffffffffffffffffffffffffffffffffffff16611f0582610918565b73ffffffffffffffffffffffffffffffffffffffff1614611f5b576040517f08c379a0000000000000000000000000000000000000000000000000000000008152600401611f5290613f4c565b60405180910390fd5b600073ffffffffffffffffffffffffffffffffffffffff168273ffffffffffffffffffffffffffffffffffffffff161415611fcb576040517f08c379a0000000000000000000000000000000000000000000000000000000008152600401611fc290613fac565b60405180910390fd5b611fd683838361287e565b611fe1600082611d4e565b6001600360008573ffffffffffffffffffffffffffffffffffffffff1673ffffffffffffffffffffffffffffffffffffffff168152602001908152602001600020600082825461203191906143d2565b925050819055506001600360008473ffffffffffffffffffffffffffffffffffffffff1673ffffffffffffffffffffffffffffffffffffffff168152602001908152602001600020600082825461208891906142f1565b92505081905550816002600083815260200190815260200160002060006101000a81548173ffffffffffffffffffffffffffffffffffffffff021916908373ffffffffffffffffffffffffffffffffffffffff160217905550808273ffffffffffffffffffffffffffffffffffffffff168473ffffffffffffffffffffffffffffffffffffffff167fddf252ad1be2c89b69c2b068fc378daa952ba7f163c4a11628f55a4df523b3ef60405160405180910390a4612147838383612883565b505050565b8173ffffffffffffffffffffffffffffffffffffffff168373ffffffffffffffffffffffffffffffffffffffff1614156121bb576040517f08c379a00000000000000000000000000000000000000000000000000000000081526004016121b290613fcc565b60405180910390fd5b80600560008573ffffffffffffffffffffffffffffffffffffffff1673ffffffffffffffffffffffffffffffffffffffff16815260200190815260200160002060008473ffffffffffffffffffffffffffffffffffffffff1673ffffffffffffffffffffffffffffffffffffffff16815260200190815260200160002060006101000a81548160ff0219169083151502179055508173ffffffffffffffffffffffffffffffffffffffff168373ffffffffffffffffffffffffffffffffffffffff167f17307eab39ab6107e8899845ad3d59bd9653f200f220920489ca2b5937696c31836040516122ac9190613d73565b60405180910390a3505050565b6122c4848484611ee5565b6122d084848484612888565b61230f576040517f08c379a000000000000000000000000000000000000000000000000000000000815260040161230690613f2c565b60405180910390fd5b50505050565b6060600082141561235d576040518060400160405280600181526020017f300000000000000000000000000000000000000000000000000000000000000081525090506124bd565b600082905060005b6000821461238f578080612378906144ee565b915050600a826123889190614347565b9150612365565b60008167ffffffffffffffff8111156123d1577f4e487b7100000000000000000000000000000000000000000000000000000000600052604160045260246000fd5b6040519080825280601f01601f1916602001820160405280156124035781602001600182028036833780820191505090505b5090505b600085146124b65760018261241c91906143d2565b9150600a8561242b9190614537565b603061243791906142f1565b60f81b818381518110612473577f4e487b7100000000000000000000000000000000000000000000000000000000600052603260045260246000fd5b60200101907effffffffffffffffffffffffffffffffffffffffffffffffffffffffffffff1916908160001a905350600a856124af9190614347565b9450612407565b8093505050505b919050565b60606000825114156124e557604051806020016040528060008152509050612647565b600060405180606001604052806040815260200161473d604091399050600060036002855161251491906142f1565b61251e9190614347565b600461252a9190614378565b67ffffffffffffffff811115612569577f4e487b7100000000000000000000000000000000000000000000000000000000600052604160045260246000fd5b6040519080825280601f01601f19166020018201604052801561259b5781602001600182028036833780820191505090505b509050600182016020820185865187015b80821015612607576003820191508151603f8160121c168501518453600184019350603f81600c1c168501518453600184019350603f8160061c168501518453600184019350603f81168501518453600184019350506125ac565b505060038651066001811461262357600281146126365761263e565b603d6001830353603d600283035361263e565b603d60018303535b50505080925050505b919050565b6126e8848484846040516024016126669493929190613e0a565b6040516020818303038152906040527fd5cf17d0000000000000000000000000000000000000000000000000000000007bffffffffffffffffffffffffffffffffffffffffffffffffffffffff19166020820180517bffffffffffffffffffffffffffffffffffffffffffffffffffffffff8381831617835250505050612855565b50505050565b6127868282604051602401612704929190613ebe565b6040516020818303038152906040527f9710a9d0000000000000000000000000000000000000000000000000000000007bffffffffffffffffffffffffffffffffffffffffffffffffffffffff19166020820180517bffffffffffffffffffffffffffffffffffffffffffffffffffffffff8381831617835250505050612855565b5050565b600081600001549050919050565b6127b2828260405180602001604052806000815250612a1f565b5050565b6128508383836040516024016127ce93929190613eee565b6040516020818303038152906040527f969cdd03000000000000000000000000000000000000000000000000000000007bffffffffffffffffffffffffffffffffffffffffffffffffffffffff19166020820180517bffffffffffffffffffffffffffffffffffffffffffffffffffffffff8381831617835250505050612855565b505050565b60008151905060006a636f6e736f6c652e6c6f679050602083016000808483855afa5050505050565b505050565b505050565b60006128a98473ffffffffffffffffffffffffffffffffffffffff16612a7a565b15612a12578373ffffffffffffffffffffffffffffffffffffffff1663150b7a026128d2611d46565b8786866040518563ffffffff1660e01b81526004016128f49493929190613cce565b602060405180830381600087803b15801561290e57600080fd5b505af192505050801561293f57506040513d601f19601f8201168201806040525081019061293c919061303c565b60015b6129c2573d806000811461296f576040519150601f19603f3d011682016040523d82523d6000602084013e612974565b606091505b506000815114156129ba576040517f08c379a00000000000000000000000000000000000000000000000000000000081526004016129b190613f2c565b60405180910390fd5b805181602001fd5b63150b7a0260e01b7bffffffffffffffffffffffffffffffffffffffffffffffffffffffff1916817bffffffffffffffffffffffffffffffffffffffffffffffffffffffff191614915050612a17565b600190505b949350505050565b612a298383612ab9565b612a366000848484612888565b612a75576040517f08c379a0000000000000000000000000000000000000000000000000000000008152600401612a6c90613f2c565b60405180910390fd5b505050565b6000808273ffffffffffffffffffffffffffffffffffffffff16803b806020016040519081016040528181526000908060200190933c51119050919050565b600073ffffffffffffffffffffffffffffffffffffffff168273ffffffffffffffffffffffffffffffffffffffff161415612b29576040517f08c379a0000000000000000000000000000000000000000000000000000000008152600401612b209061408c565b60405180910390fd5b612b3281611cda565b15612b72576040517f08c379a0000000000000000000000000000000000000000000000000000000008152600401612b6990613f8c565b60405180910390fd5b612b7e6000838361287e565b6001600360008473ffffffffffffffffffffffffffffffffffffffff1673ffffffffffffffffffffffffffffffffffffffff1681526020019081526020016000206000828254612bce91906142f1565b92505081905550816002600083815260200190815260200160002060006101000a81548173ffffffffffffffffffffffffffffffffffffffff021916908373ffffffffffffffffffffffffffffffffffffffff160217905550808273ffffffffffffffffffffffffffffffffffffffff16600073ffffffffffffffffffffffffffffffffffffffff167fddf252ad1be2c89b69c2b068fc378daa952ba7f163c4a11628f55a4df523b3ef60405160405180910390a4612c8f60008383612883565b5050565b6040518060a0016040528060608152602001606081526020016000815260200160008152602001600081525090565b6040518060c001604052806000815260200160608152602001606081526020016000815260200160008152602001600081525090565b828054612d04906144bc565b90600052602060002090601f016020900481019282612d265760008555612d6d565b82601f10612d3f57805160ff1916838001178555612d6d565b82800160010185558215612d6d579182015b82811115612d6c578251825591602001919060010190612d51565b5b509050612d7a9190612d7e565b5090565b5b80821115612d97576000816000905550600101612d7f565b5090565b6000612dae612da984614234565b614203565b905082815260208101848484011115612dc657600080fd5b612dd184828561447a565b509392505050565b600081359050612de881614635565b92915050565b600081359050612dfd8161464c565b92915050565b600081359050612e1281614663565b92915050565b600081519050612e2781614663565b92915050565b600082601f830112612e3e57600080fd5b8135612e4e848260208601612d9b565b91505092915050565b600081359050612e668161467a565b92915050565b600060208284031215612e7e57600080fd5b6000612e8c84828501612dd9565b91505092915050565b60008060408385031215612ea857600080fd5b6000612eb685828601612dd9565b9250506020612ec785828601612dd9565b9150509250929050565b600080600060608486031215612ee657600080fd5b6000612ef486828701612dd9565b9350506020612f0586828701612dd9565b9250506040612f1686828701612e57565b9150509250925092565b60008060008060808587031215612f3657600080fd5b6000612f4487828801612dd9565b9450506020612f5587828801612dd9565b9350506040612f6687828801612e57565b925050606085013567ffffffffffffffff811115612f8357600080fd5b612f8f87828801612e2d565b91505092959194509250565b60008060408385031215612fae57600080fd5b6000612fbc85828601612dd9565b9250506020612fcd85828601612dee565b9150509250929050565b60008060408385031215612fea57600080fd5b6000612ff885828601612dd9565b925050602061300985828601612e57565b9150509250929050565b60006020828403121561302557600080fd5b600061303384828501612e03565b91505092915050565b60006020828403121561304e57600080fd5b600061305c84828501612e18565b91505092915050565b60006020828403121561307757600080fd5b600061308584828501612e57565b91505092915050565b600061309a8383613aae565b905092915050565b6130ab81614406565b82525050565b60006130bc82614274565b6130c681856142a2565b9350836020820285016130d885614264565b8060005b8581101561311457848403895281516130f5858261308e565b945061310083614295565b925060208a019950506001810190506130dc565b50829750879550505050505092915050565b61312f81614418565b82525050565b60006131408261427f565b61314a81856142b3565b935061315a818560208601614489565b61316381614624565b840191505092915050565b60006131798261428a565b61318381856142c4565b9350613193818560208601614489565b61319c81614624565b840191505092915050565b60006131b28261428a565b6131bc81856142d5565b93506131cc818560208601614489565b6131d581614624565b840191505092915050565b60006131eb8261428a565b6131f581856142e6565b9350613205818560208601614489565b80840191505092915050565b600061321e600b836142e6565b91507f202d2d204e465420233a200000000000000000000000000000000000000000006000830152600b82019050919050565b600061325e6032836142d5565b91507f4552433732313a207472616e7366657220746f206e6f6e20455243373231526560008301527f63656976657220696d706c656d656e74657200000000000000000000000000006020830152604082019050919050565b60006132c46025836142d5565b91507f4552433732313a207472616e736665722066726f6d20696e636f72726563742060008301527f6f776e65720000000000000000000000000000000000000000000000000000006020830152604082019050919050565b600061332a6028836142d5565b91507f4572726f723a20626f7373206d757374206861766520485020746f206174746160008301527f636b20626f73732e0000000000000000000000000000000000000000000000006020830152604082019050919050565b6000613390601c836142d5565b91507f4552433732313a20746f6b656e20616c7265616479206d696e746564000000006000830152602082019050919050565b60006133d0600e836142e6565b91507f2c20226d61785f76616c7565223a0000000000000000000000000000000000006000830152600e82019050919050565b60006134106024836142d5565b91507f4552433732313a207472616e7366657220746f20746865207a65726f2061646460008301527f72657373000000000000000000000000000000000000000000000000000000006020830152604082019050919050565b60006134766019836142d5565b91507f4552433732313a20617070726f766520746f2063616c6c6572000000000000006000830152602082019050919050565b60006134b6602c836142d5565b91507f4552433732313a206f70657261746f7220717565727920666f72206e6f6e657860008301527f697374656e7420746f6b656e00000000000000000000000000000000000000006020830152604082019050919050565b600061351c601b836142e6565b91507f7b226e616d65223a20224d6574617665727365204b617274656c2200000000006000830152601b82019050919050565b600061355c6038836142d5565b91507f4552433732313a20617070726f76652063616c6c6572206973206e6f74206f7760008301527f6e6572206e6f7220617070726f76656420666f7220616c6c00000000000000006020830152604082019050919050565b60006135c2602a836142d5565b91507f4552433732313a2062616c616e636520717565727920666f7220746865207a6560008301527f726f2061646472657373000000000000000000000000000000000000000000006020830152604082019050919050565b60006136286029836142d5565b91507f4552433732313a206f776e657220717565727920666f72206e6f6e657869737460008301527f656e7420746f6b656e00000000000000000000000000000000000000000000006020830152604082019050919050565b600061368e602d836142d5565b91507f4572726f723a20636861726163746572206d757374206861766520485020746f60008301527f2061747461636b20626f73732e000000000000000000000000000000000000006020830152604082019050919050565b60006136f46004836142e6565b91507f7d205d7d000000000000000000000000000000000000000000000000000000006000830152600482019050919050565b60006137346020836142d5565b91507f4552433732313a206d696e7420746f20746865207a65726f20616464726573736000830152602082019050919050565b6000613774602c836142d5565b91507f4552433732313a20617070726f76656420717565727920666f72206e6f6e657860008301527f697374656e7420746f6b656e00000000000000000000000000000000000000006020830152604082019050919050565b60006137da6021836142d5565b91507f4552433732313a20617070726f76616c20746f2063757272656e74206f776e6560008301527f72000000000000000000000000000000000000000000000000000000000000006020830152604082019050919050565b6000613840601d836142e6565b91507f646174613a6170706c69636174696f6e2f6a736f6e3b6261736536342c0000006000830152601d82019050919050565b60006138806058836142e6565b91507f222c20226465736372697074696f6e223a20225468697320697320616e204e4660008301527f542074686174206c6574732070656f706c65206a6f696e2061204d657461766560208301527f727365204b617274656c21222c2022696d616765223a202200000000000000006040830152605882019050919050565b600061390c6031836142d5565b91507f4552433732313a207472616e736665722063616c6c6572206973206e6f74206f60008301527f776e6572206e6f7220617070726f7665640000000000000000000000000000006020830152604082019050919050565b6000613972603d836142e6565b91507f222c202261747472696275746573223a205b207b202274726169745f7479706560008301527f223a20224865616c746820506f696e7473222c202276616c7565223a200000006020830152603d82019050919050565b60006139d8602d836142e6565b91507f7d2c207b202274726169745f74797065223a202241747461636b2044616d616760008301527f65222c202276616c7565223a20000000000000000000000000000000000000006020830152602d82019050919050565b600060a0830160008301518482036000860152613a4e828261316e565b91505060208301518482036020860152613a68828261316e565b9150506040830151613a7d6040860182613bce565b506060830151613a906060860182613bce565b506080830151613aa36080860182613bce565b508091505092915050565b600060c083016000830151613ac66000860182613bce565b5060208301518482036020860152613ade828261316e565b91505060408301518482036040860152613af8828261316e565b9150506060830151613b0d6060860182613bce565b506080830151613b206080860182613bce565b5060a0830151613b3360a0860182613bce565b508091505092915050565b600060c083016000830151613b566000860182613bce565b5060208301518482036020860152613b6e828261316e565b91505060408301518482036040860152613b88828261316e565b9150506060830151613b9d6060860182613bce565b506080830151613bb06080860182613bce565b5060a0830151613bc360a0860182613bce565b508091505092915050565b613bd781614470565b82525050565b613be681614470565b82525050565b6000613bf78261350f565b9150613c0382896131e0565b9150613c0e82613211565b9150613c1a82886131e0565b9150613c2582613873565b9150613c3182876131e0565b9150613c3c82613965565b9150613c4882866131e0565b9150613c53826133c3565b9150613c5f82856131e0565b9150613c6a826139cb565b9150613c7682846131e0565b9150613c81826136e7565b9150819050979650505050505050565b6000613c9c82613833565b9150613ca882846131e0565b915081905092915050565b6000602082019050613cc860008301846130a2565b92915050565b6000608082019050613ce360008301876130a2565b613cf060208301866130a2565b613cfd6040830185613bdd565b8181036060830152613d0f8184613135565b905095945050505050565b6000606082019050613d2f60008301866130a2565b613d3c6020830185613bdd565b613d496040830184613bdd565b949350505050565b60006020820190508181036000830152613d6b81846130b1565b905092915050565b6000602082019050613d886000830184613126565b92915050565b60006020820190508181036000830152613da881846131a7565b905092915050565b60006080820190508181036000830152613dca81876131a7565b90508181036020830152613dde81866131a7565b9050613ded6040830185613bdd565b8181036060830152613dff81846131a7565b905095945050505050565b60006080820190508181036000830152613e2481876131a7565b90508181036020830152613e3881866131a7565b9050613e476040830185613bdd565b613e546060830184613bdd565b95945050505050565b600060a0820190508181036000830152613e7781886131a7565b90508181036020830152613e8b81876131a7565b9050613e9a6040830186613bdd565b613ea76060830185613bdd565b613eb46080830184613bdd565b9695505050505050565b60006040820190508181036000830152613ed881856131a7565b9050613ee76020830184613bdd565b9392505050565b60006060820190508181036000830152613f0881866131a7565b9050613f176020830185613bdd565b613f246040830184613bdd565b949350505050565b60006020820190508181036000830152613f4581613251565b9050919050565b60006020820190508181036000830152613f65816132b7565b9050919050565b60006020820190508181036000830152613f858161331d565b9050919050565b60006020820190508181036000830152613fa581613383565b9050919050565b60006020820190508181036000830152613fc581613403565b9050919050565b60006020820190508181036000830152613fe581613469565b9050919050565b60006020820190508181036000830152614005816134a9565b9050919050565b600060208201905081810360008301526140258161354f565b9050919050565b60006020820190508181036000830152614045816135b5565b9050919050565b600060208201905081810360008301526140658161361b565b9050919050565b6000602082019050818103600083015261408581613681565b9050919050565b600060208201905081810360008301526140a581613727565b9050919050565b600060208201905081810360008301526140c581613767565b9050919050565b600060208201905081810360008301526140e5816137cd565b9050919050565b60006020820190508181036000830152614105816138ff565b9050919050565b600060208201905081810360008301526141268184613a31565b905092915050565b600060208201905081810360008301526141488184613b3e565b905092915050565b60006020820190506141656000830184613bdd565b92915050565b600060c0820190506141806000830189613bdd565b818103602083015261419281886131a7565b905081810360408301526141a681876131a7565b90506141b56060830186613bdd565b6141c26080830185613bdd565b6141cf60a0830184613bdd565b979650505050505050565b60006040820190506141ef6000830185613bdd565b6141fc6020830184613bdd565b9392505050565b6000604051905081810181811067ffffffffffffffff8211171561422a576142296145f5565b5b8060405250919050565b600067ffffffffffffffff82111561424f5761424e6145f5565b5b601f19601f8301169050602081019050919050565b6000819050602082019050919050565b600081519050919050565b600081519050919050565b600081519050919050565b6000602082019050919050565b600082825260208201905092915050565b600082825260208201905092915050565b600082825260208201905092915050565b600082825260208201905092915050565b600081905092915050565b60006142fc82614470565b915061430783614470565b9250827fffffffffffffffffffffffffffffffffffffffffffffffffffffffffffffffff0382111561433c5761433b614568565b5b828201905092915050565b600061435282614470565b915061435d83614470565b92508261436d5761436c614597565b5b828204905092915050565b600061438382614470565b915061438e83614470565b9250817fffffffffffffffffffffffffffffffffffffffffffffffffffffffffffffffff04831182151516156143c7576143c6614568565b5b828202905092915050565b60006143dd82614470565b91506143e883614470565b9250828210156143fb576143fa614568565b5b828203905092915050565b600061441182614450565b9050919050565b60008115159050919050565b60007fffffffff0000000000000000000000000000000000000000000000000000000082169050919050565b600073ffffffffffffffffffffffffffffffffffffffff82169050919050565b6000819050919050565b82818337600083830152505050565b60005b838110156144a757808201518184015260208101905061448c565b838111156144b6576000848401525b50505050565b600060028204905060018216806144d457607f821691505b602082108114156144e8576144e76145c6565b5b50919050565b60006144f982614470565b91507fffffffffffffffffffffffffffffffffffffffffffffffffffffffffffffffff82141561452c5761452b614568565b5b600182019050919050565b600061454282614470565b915061454d83614470565b92508261455d5761455c614597565b5b828206905092915050565b7f4e487b7100000000000000000000000000000000000000000000000000000000600052601160045260246000fd5b7f4e487b7100000000000000000000000000000000000000000000000000000000600052601260045260246000fd5b7f4e487b7100000000000000000000000000000000000000000000000000000000600052602260045260246000fd5b7f4e487b7100000000000000000000000000000000000000000000000000000000600052604160045260246000fd5b6000601f19601f8301169050919050565b61463e81614406565b811461464957600080fd5b50565b61465581614418565b811461466057600080fd5b50565b61466c81614424565b811461467757600080fd5b50565b61468381614470565b811461468e57600080fd5b5056fe44454120636f6e666973636174656420796f757220427269636b732e204e6577206b617274656c206d656d6265722068703a2025730a426f73732025732068617320257320436f6e666973636174696f6e20506f7765722848502920616e642025732041440a506c6179657220772f206368617261637465722025732061626f757420746f206d6f766520736f6d6520627269636b732e2048617320257320485020616e642025732041444142434445464748494a4b4c4d4e4f505152535455565758595a6162636465666768696a6b6c6d6e6f707172737475767778797a303132333435363738392b2f4d696e746564204e465420772f20746f6b656e496420257320616e6420636861726163746572496e646578202573506c61796572206d6f76656420736f6d6520427269636b7320736166656c792e204e6577204445412068703a202573a264697066735822122032f71dd9ffde4448bf3b5c301a57a7430d9e3e0c39d7ba7a4df4de2bfa40964364736f6c63430008000033446f6e6520696e697469616c697a696e6720257320772f2048502025732c20696d67202573446f6e6520696e697469616c697a696e6720626f737320257320772f2048502025732c20696d67202573",
  "linkReferences": {},
  "deployedLinkReferences": {}
}